:1000000075A000D2B1C2B0758920758000759000CE
:10001000900094758BCF758DCF7400D2B01185C2CE
:10002000B030B1FDD28E308FFDC28EC28F0420B1B0
:10003000F3FC1147113880DBECB40A02800850064B
:10004000D2A4118AC2A4227D64EC75F06484D2909B
:100050001182F580117D117DE5F075F00A84C29062
:10006000D2911182F580117D117DE5F0C291D2927D
:100070001182F580117D117DC292DDCD227FFADFE4
:10008000FE2293F422792DD9FE2279FF7AFF00DA3D
:0E009000FDD9F9223F065B4F666D7D077F6F3D
:00000001FF
